:100000000C9434000C943E000C943E000C943E0082
:100010000C943E000C943E000C943E000C943E0068
:100020000C943E000C943E000C943E000C943E0058
:100030000C943E000C943E000C943E000C943E0048
:100040000C943E000C943E000C943E000C943E0038
:100050000C943E000C943E000C943E000C943E0028
:100060000C943E000C943E0011241FBECFEFD8E04C
:10007000DEBFCDBF0E9452000C9468000C940000BB
:100080009093C5008093C40088E18093C10086E00E
:100090008093C20008959091C00095FFFCCF80939B
:1000A000C600089587E690E00E944000259AC0E2CD
:1000B00085B18C2785B981E40E944B002FEF83ED39
:1000C00090E3215080409040E1F700C00000F0CF65
:0400D000F894FFCFD2
:00000001FF
